{
  "contractName": "Healthchain",
  "abi": [
    {
      "inputs": [
        {
          "internalType": "address",
          "name": "",
          "type": "address"
        },
        {
          "internalType": "uint256",
          "name": "",
          "type": "uint256"
        }
      ],
      "name": "doctorsPermissions",
      "outputs": [
        {
          "internalType": "address",
          "name": "",
          "type": "address"
        }
      ],
      "stateMutability": "view",
      "type": "function"
    },
    {
      "inputs": [
        {
          "internalType": "address",
          "name": "",
          "type": "address"
        },
        {
          "internalType": "uint256",
          "name": "",
          "type": "uint256"
        }
      ],
      "name": "documents",
      "outputs": [
        {
          "internalType": "string",
          "name": "",
          "type": "string"
        }
      ],
      "stateMutability": "view",
      "type": "function"
    },
    {
      "inputs": [
        {
          "internalType": "string",
          "name": "documentHash",
          "type": "string"
        }
      ],
      "name": "addDocument",
      "outputs": [
        {
          "internalType": "uint256",
          "name": "",
          "type": "uint256"
        }
      ],
      "stateMutability": "nonpayable",
      "type": "function"
    },
    {
      "inputs": [
        {
          "internalType": "address",
          "name": "user",
          "type": "address"
        }
      ],
      "name": "getDocuments",
      "outputs": [
        {
          "internalType": "string[]",
          "name": "",
          "type": "string[]"
        }
      ],
      "stateMutability": "view",
      "type": "function"
    },
    {
      "inputs": [
        {
          "internalType": "address",
          "name": "doctor",
          "type": "address"
        }
      ],
      "name": "giveAccessToDoctor",
      "outputs": [],
      "stateMutability": "nonpayable",
      "type": "function"
    },
    {
      "inputs": [
        {
          "internalType": "address",
          "name": "doctor",
          "type": "address"
        },
        {
          "internalType": "uint256",
          "name": "index",
          "type": "uint256"
        }
      ],
      "name": "revokeAccessFromDoctor",
      "outputs": [],
      "stateMutability": "nonpayable",
      "type": "function"
    },
    {
      "inputs": [
        {
          "internalType": "address",
          "name": "doctor",
          "type": "address"
        }
      ],
      "name": "getDoctorsPermissions",
      "outputs": [
        {
          "internalType": "address[]",
          "name": "",
          "type": "address[]"
        }
      ],
      "stateMutability": "view",
      "type": "function"
    }
  ],
  "bytecode": "0x608060405234801561001057600080fd5b506108b7806100206000396000f3fe608060405234801561001057600080fd5b506004361061007d5760003560e01c8063633988441161005b578063633988441461011357806376e695ad14610133578063f740e0451461015e578063fdd198571461017f57600080fd5b806306be09d81461008257806327f50a2d146100ab57806328b2b968146100cb575b600080fd5b6100956100903660046105f0565b610192565b6040516100a2919061060b565b60405180910390f35b6100be6100b93660046105f0565b610208565b6040516100a291906106a5565b6101116100d93660046105f0565b6001600160a01b0316600090815260016020818152604083208054928301815583529091200180546001600160a01b03191633179055565b005b610126610121366004610707565b6102f5565b6040516100a29190610731565b610146610141366004610707565b6103ae565b6040516001600160a01b0390911681526020016100a2565b61017161016c36600461075a565b6103e6565b6040519081526020016100a2565b61011161018d366004610707565b610447565b6001600160a01b0381166000908152600160209081526040918290208054835181840281018401909452808452606093928301828280156101fc57602002820191906000526020600020905b81546001600160a01b031681526001909101906020018083116101de575b50505050509050919050565b6001600160a01b038116600090815260208181526040808320805482518185028101850190935280835260609492939192909184015b828210156102ea57838290600052602060002001805461025d9061080b565b80601f01602080910402602001604051908101604052809291908181526020018280546102899061080b565b80156102d65780601f106102ab576101008083540402835291602001916102d6565b820191906000526020600020905b8154815290600101906020018083116102b957829003601f168201915b50505050508152602001906001019061023e565b505050509050919050565b6000602052816000526040600020818154811061031157600080fd5b9060005260206000200160009150915050805461032d9061080b565b80601f01602080910402602001604051908101604052809291908181526020018280546103599061080b565b80156103a65780601f1061037b576101008083540402835291602001916103a6565b820191906000526020600020905b81548152906001019060200180831161038957829003601f168201915b505050505081565b600160205281600052604060002081815481106103ca57600080fd5b6000918252602090912001546001600160a01b03169150829050565b3360008181526020818152604082208054600181018255908352818320855193949361041a9391909201919086019061053b565b506001600160a01b03811660009081526020819052604090205461044090600190610846565b9392505050565b6001600160a01b03821660009081526001602052604090208054339190839081106104745761047461086b565b6000918252602090912001546001600160a01b0316146104f45760405162461bcd60e51b815260206004820152603160248201527f596f752063616e206f6e6c79207265766f6b652061636365737320746f20796f6044820152703ab91037bbb7103237b1bab6b2b73a399760791b606482015260840160405180910390fd5b6001600160a01b038216600090815260016020526040902080548290811061051e5761051e61086b565b600091825260209091200180546001600160a01b03191690555050565b8280546105479061080b565b90600052602060002090601f01602090048101928261056957600085556105af565b82601f1061058257805160ff19168380011785556105af565b828001600101855582156105af579182015b828111156105af578251825591602001919060010190610594565b506105bb9291506105bf565b5090565b5b808211156105bb57600081556001016105c0565b80356001600160a01b03811681146105eb57600080fd5b919050565b60006020828403121561060257600080fd5b610440826105d4565b6020808252825182820181905260009190848201906040850190845b8181101561064c5783516001600160a01b031683529284019291840191600101610627565b50909695505050505050565b6000815180845260005b8181101561067e57602081850181015186830182015201610662565b81811115610690576000602083870101525b50601f01601f19169290920160200192915050565b6000602080830181845280855180835260408601915060408160051b870101925083870160005b828110156106fa57603f198886030184526106e8858351610658565b945092850192908501906001016106cc565b5092979650505050505050565b6000806040838503121561071a57600080fd5b610723836105d4565b946020939093013593505050565b6020815260006104406020830184610658565b634e487b7160e01b600052604160045260246000fd5b60006020828403121561076c57600080fd5b813567ffffffffffffffff8082111561078457600080fd5b818401915084601f83011261079857600080fd5b8135818111156107aa576107aa610744565b604051601f8201601f19908116603f011681019083821181831017156107d2576107d2610744565b816040528281528760208487010111156107eb57600080fd5b826020860160208301376000928101602001929092525095945050505050565b600181811c9082168061081f57607f821691505b6020821081141561084057634e487b7160e01b600052602260045260246000fd5b50919050565b60008282101561086657634e487b7160e01b600052601160045260246000fd5b500390565b634e487b7160e01b600052603260045260246000fdfea264697066735822122040f593d123cbc7addb9c29a9457c071f80be372d009db060eb4356d07eeb5c8b64736f6c634300080c0033",
  "immutableReferences": {},
  "source": "pragma solidity ^0.8.0;\n\ncontract Healthchain {\n\n  mapping (address => string[]) public documents;\n  function addDocument(string memory documentHash) public returns (uint) {\n    address from = msg.sender;\n    documents[from].push(documentHash);\n    return documents[from].length - 1;\n  }\n\n  function getDocuments(address user) public view returns (string[] memory) {\n    return documents[user];\n  }\n\n  mapping (address => address[]) public doctorsPermissions;\n\n  function giveAccessToDoctor(address doctor) public {\n    doctorsPermissions[doctor].push(msg.sender);\n  }\n\n  function revokeAccessFromDoctor(address doctor, uint index) public {\n    require(doctorsPermissions[doctor][index] == msg.sender, 'You can only revoke access to your own documents.');\n    delete doctorsPermissions[doctor][index];\n  }\n\n  function getDoctorsPermissions(address doctor) public view returns (address[] memory) {\n    return doctorsPermissions[doctor];\n  }\n}",
  "sourcePath": "/home/prajesh/healthcaresys/contracts/ElectronicHealthRecord.sol",
  "compiler": {
    "name": "solc",
    "version": "0.8.12+commit.f00d7308.Emscripten.clang"
  },
  "schemaVersion": "3.4.13",
  "updatedAt": "2023-03-14T19:04:03.360Z",
  "devdoc": {
    "kind": "dev",
    "methods": {},
    "version": 1
  },
  "userdoc": {
    "kind": "user",
    "methods": {},
    "version": 1
  }
}