{
  "contractName": "HealthCare",
  "abi": [
    {
      "stateMutability": "payable",
      "type": "receive"
    },
    {
      "inputs": [
        {
          "internalType": "string",
          "name": "name",
          "type": "string"
        },
        {
          "internalType": "uint256",
          "name": "age",
          "type": "uint256"
        },
        {
          "internalType": "string",
          "name": "contact",
          "type": "string"
        },
        {
          "internalType": "string",
          "name": "homeAddress",
          "type": "string"
        }
      ],
      "name": "addPatient",
      "outputs": [],
      "stateMutability": "nonpayable",
      "type": "function"
    },
    {
      "inputs": [
        {
          "internalType": "uint256",
          "name": "patID",
          "type": "uint256"
        },
        {
          "internalType": "uint256",
          "name": "docID",
          "type": "uint256"
        }
      ],
      "name": "getPatient",
      "outputs": [
        {
          "internalType": "string",
          "name": "_name",
          "type": "string"
        },
        {
          "internalType": "uint256",
          "name": "_age",
          "type": "uint256"
        },
        {
          "internalType": "string[]",
          "name": "_diagnoses",
          "type": "string[]"
        }
      ],
      "stateMutability": "view",
      "type": "function"
    },
    {
      "inputs": [
        {
          "internalType": "uint256",
          "name": "patID",
          "type": "uint256"
        },
        {
          "internalType": "uint256",
          "name": "docID",
          "type": "uint256"
        }
      ],
      "name": "grantDataAccess",
      "outputs": [],
      "stateMutability": "nonpayable",
      "type": "function"
    },
    {
      "inputs": [
        {
          "internalType": "uint256",
          "name": "patID",
          "type": "uint256"
        },
        {
          "internalType": "uint256",
          "name": "docID",
          "type": "uint256"
        }
      ],
      "name": "revokeDataAccess",
      "outputs": [],
      "stateMutability": "nonpayable",
      "type": "function"
    },
    {
      "inputs": [
        {
          "internalType": "uint256",
          "name": "patID",
          "type": "uint256"
        },
        {
          "internalType": "uint256",
          "name": "docID",
          "type": "uint256"
        }
      ],
      "name": "hasDataAccess",
      "outputs": [
        {
          "internalType": "bool",
          "name": "",
          "type": "bool"
        }
      ],
      "stateMutability": "view",
      "type": "function"
    },
    {
      "inputs": [
        {
          "internalType": "string",
          "name": "name",
          "type": "string"
        },
        {
          "internalType": "string",
          "name": "medicalFacility",
          "type": "string"
        },
        {
          "internalType": "string",
          "name": "medicalSpecialty",
          "type": "string"
        }
      ],
      "name": "addDoctor",
      "outputs": [],
      "stateMutability": "nonpayable",
      "type": "function"
    },
    {
      "inputs": [
        {
          "internalType": "uint256",
          "name": "docID",
          "type": "uint256"
        }
      ],
      "name": "getDoctorDetails",
      "outputs": [
        {
          "components": [
            {
              "internalType": "uint256",
              "name": "docID",
              "type": "uint256"
            },
            {
              "internalType": "string",
              "name": "name",
              "type": "string"
            },
            {
              "internalType": "string",
              "name": "medicalFacility",
              "type": "string"
            },
            {
              "internalType": "string",
              "name": "medicalSpecialty",
              "type": "string"
            }
          ],
          "internalType": "struct HealthCare.Doctor",
          "name": "",
          "type": "tuple"
        }
      ],
      "stateMutability": "view",
      "type": "function"
    }
  ],
  "bytecode": "0x6080604052600080556000600155600060025534801561001e57600080fd5b50610ca48061002e6000396000f3fe6080604052600436106100745760003560e01c80634ab531841161004e5780634ab53184146101085780635911bc2d14610128578063c110bb1914610148578063c49213ed1461016857600080fd5b806333f0d5ea146100805780633b6d5b8c146100a25780634566d406146100d857600080fd5b3661007b57005b600080fd5b34801561008c57600080fd5b506100a061009b366004610909565b610197565b005b3480156100ae57600080fd5b506100c26100bd3660046109ad565b610221565b6040516100cf9190610a13565b60405180910390f35b3480156100e457600080fd5b506100f86100f3366004610a7e565b610431565b60405190151581526020016100cf565b34801561011457600080fd5b506100a0610123366004610a7e565b6104a2565b34801561013457600080fd5b506100a0610143366004610aa0565b61050e565b34801561015457600080fd5b506100a0610163366004610a7e565b61058d565b34801561017457600080fd5b50610188610183366004610a7e565b6105f6565b6040516100cf93929190610b3a565b60008054808252600360205260409091209081556101b9906001018888610827565b50600080548152600360208190526040808320600201889055825483529091206101e591018585610827565b50600080548152600360205260409020610203906004018383610827565b5060008054908061021383610bb3565b919050555050505050505050565b61024c6040518060800160405280600081526020016060815260200160608152602001606081525090565b600460008381526020019081526020016000206040518060800160405290816000820154815260200160018201805461028490610bdc565b80601f01602080910402602001604051908101604052809291908181526020018280546102b090610bdc565b80156102fd5780601f106102d2576101008083540402835291602001916102fd565b820191906000526020600020905b8154815290600101906020018083116102e057829003601f168201915b5050505050815260200160028201805461031690610bdc565b80601f016020809104026020016040519081016040528092919081815260200182805461034290610bdc565b801561038f5780601f106103645761010080835404028352916020019161038f565b820191906000526020600020905b81548152906001019060200180831161037257829003601f168201915b505050505081526020016003820180546103a890610bdc565b80601f01602080910402602001604051908101604052809291908181526020018280546103d490610bdc565b80156104215780601f106103f657610100808354040283529160200191610421565b820191906000526020600020905b81548152906001019060200180831161040457829003601f168201915b5050505050815250509050919050565b60008054831061045c5760405162461bcd60e51b815260040161045390610c17565b60405180910390fd5b600154821061047d5760405162461bcd60e51b815260040161045390610c43565b5060009182526003602090815260408084209284526007909201905290205460ff1690565b60005482106104c35760405162461bcd60e51b815260040161045390610c17565b60015481106104e45760405162461bcd60e51b815260040161045390610c43565b6000918252600360209081526040808420928452600790920190529020805460ff19166001179055565b60018054600081815260046020526040902090815561052f91018787610827565b50600154600090815260046020526040902061054f906002018585610827565b50600154600090815260046020526040902061056f906003018383610827565b506001805490600061058083610bb3565b9190505550505050505050565b60005482106105ae5760405162461bcd60e51b815260040161045390610c17565b60015481106105cf5760405162461bcd60e51b815260040161045390610c43565b6000918252600360209081526040808420928452600790920190529020805460ff19169055565b606060006060600054851061061d5760405162461bcd60e51b815260040161045390610c17565b600154841061063e5760405162461bcd60e51b815260040161045390610c43565b600085815260036020908152604080832087845260070190915290205460ff1661069a5760405162461bcd60e51b815260206004820152600d60248201526c1058d8d95cdcc819195b9a5959609a1b6044820152606401610453565b600085815260036020526040902060010180546106b690610bdc565b80601f01602080910402602001604051908101604052809291908181526020018280546106e290610bdc565b801561072f5780601f106107045761010080835404028352916020019161072f565b820191906000526020600020905b81548152906001019060200180831161071257829003601f168201915b5050506000888152600360209081526040808320600281015460059091018054835181860281018601909452808452979a509098509095909450925084015b8282101561081a57838290600052602060002001805461078d90610bdc565b80601f01602080910402602001604051908101604052809291908181526020018280546107b990610bdc565b80156108065780601f106107db57610100808354040283529160200191610806565b820191906000526020600020905b8154815290600101906020018083116107e957829003601f168201915b50505050508152602001906001019061076e565b5050505090509250925092565b82805461083390610bdc565b90600052602060002090601f016020900481019282610855576000855561089b565b82601f1061086e5782800160ff1982351617855561089b565b8280016001018555821561089b579182015b8281111561089b578235825591602001919060010190610880565b506108a79291506108ab565b5090565b5b808211156108a757600081556001016108ac565b60008083601f8401126108d257600080fd5b50813567ffffffffffffffff8111156108ea57600080fd5b60208301915083602082850101111561090257600080fd5b9250929050565b60008060008060008060006080888a03121561092457600080fd5b873567ffffffffffffffff8082111561093c57600080fd5b6109488b838c016108c0565b909950975060208a0135965060408a013591508082111561096857600080fd5b6109748b838c016108c0565b909650945060608a013591508082111561098d57600080fd5b5061099a8a828b016108c0565b989b979a50959850939692959293505050565b6000602082840312156109bf57600080fd5b5035919050565b6000815180845260005b818110156109ec576020818501810151868301820152016109d0565b818111156109fe576000602083870101525b50601f01601f19169290920160200192915050565b60208152815160208201526000602083015160806040840152610a3960a08401826109c6565b90506040840151601f1980858403016060860152610a5783836109c6565b9250606086015191508085840301608086015250610a7582826109c6565b95945050505050565b60008060408385031215610a9157600080fd5b50508035926020909101359150565b60008060008060008060608789031215610ab957600080fd5b863567ffffffffffffffff80821115610ad157600080fd5b610add8a838b016108c0565b90985096506020890135915080821115610af657600080fd5b610b028a838b016108c0565b90965094506040890135915080821115610b1b57600080fd5b50610b2889828a016108c0565b979a9699509497509295939492505050565b606081526000610b4d60608301866109c6565b6020858185015283820360408501528185518084528284019150828160051b85010183880160005b83811015610ba357601f19878403018552610b918383516109c6565b94860194925090850190600101610b75565b50909a9950505050505050505050565b6000600019821415610bd557634e487b7160e01b600052601160045260246000fd5b5060010190565b600181811c90821680610bf057607f821691505b60208210811415610c1157634e487b7160e01b600052602260045260246000fd5b50919050565b602080825260129082015271125b9d985b1a59081c185d1a595b9d08125160721b604082015260600190565b602080825260119082015270125b9d985b1a5908191bd8dd1bdc881251607a1b60408201526060019056fea26469706673582212200b4ee4f672da4f1e6b0640f381aa9c9a3fd4b625654d32b04fcc75dff5d33e5964736f6c634300080c0033",
  "immutableReferences": {},
  "source": "//SPDX-License-Identifier: MIT\npragma solidity ^0.8.0;\n\ncontract HealthCare {\n    uint private lastPatientID = 0;\n    uint private lastDoctorID = 0;\n    uint private lastTreatmentID = 0;\n\n    struct Patient {  \n        uint patID;\n        string name;\n        uint age;\n        string contact;\n        string homeAddress;\n        string[] diagnosis;\n        uint[] doctors;\n        mapping(uint => bool) dataAccess; // Mapping to track data access by doctors\n    }\n\n    mapping (uint => Patient) private patients;\n\n    function addPatient(string calldata name, uint age, string calldata contact, string calldata homeAddress) public {\n        patients[lastPatientID].patID = lastPatientID;\n        patients[lastPatientID].name = name;\n        patients[lastPatientID].age = age;\n        patients[lastPatientID].contact = contact;\n        patients[lastPatientID].homeAddress = homeAddress;\n        lastPatientID++;\n    }\n\n    function getPatient(uint patID, uint docID) public view returns (string memory _name, uint _age, string[] memory _diagnoses) {\n        require(patID < lastPatientID, \"Invalid patient ID\");\n        require(docID < lastDoctorID, \"Invalid doctor ID\");\n        require(patients[patID].dataAccess[docID], \"Access denied\");\n        _name = patients[patID].name;\n        _age = patients[patID].age;\n        _diagnoses = patients[patID].diagnosis;\n    }\n\n\n    function grantDataAccess(uint patID, uint docID) public {\n        require(patID < lastPatientID, \"Invalid patient ID\");\n        require(docID < lastDoctorID, \"Invalid doctor ID\");\n\n        patients[patID].dataAccess[docID] = true;\n    }\n\n    function revokeDataAccess(uint patID, uint docID) public {\n        require(patID < lastPatientID, \"Invalid patient ID\");\n        require(docID < lastDoctorID, \"Invalid doctor ID\");\n\n        patients[patID].dataAccess[docID] = false;\n    }\n\n    function hasDataAccess(uint patID, uint docID) public view returns (bool) {\n        require(patID < lastPatientID, \"Invalid patient ID\");\n        require(docID < lastDoctorID, \"Invalid doctor ID\");\n\n        return patients[patID].dataAccess[docID];\n    }\n\n\n    struct Doctor {\n        uint docID;\n        string name;\n        string medicalFacility;\n        string medicalSpecialty;\n    }\n    \n    mapping(uint => Doctor) private doctors;\n    \n    function addDoctor(string calldata name, string calldata medicalFacility, string calldata medicalSpecialty) public {\n        doctors[lastDoctorID].docID = lastDoctorID;\n        doctors[lastDoctorID].name = name;\n        doctors[lastDoctorID].medicalFacility = medicalFacility;\n        doctors[lastDoctorID].medicalSpecialty = medicalSpecialty;\n        lastDoctorID++;\n    }\n    \n    function getDoctorDetails(uint docID) public view returns (Doctor memory) {\n        return doctors[docID];\n    }\n\n    receive() external payable {}\n}",
  "sourcePath": "/home/prajesh/capstone/ethnetw/contracts/HealthCare.sol",
  "compiler": {
    "name": "solc",
    "version": "0.8.12+commit.f00d7308.Emscripten.clang"
  },
  "schemaVersion": "3.4.13",
  "updatedAt": "2023-05-16T17:26:58.512Z",
  "devdoc": {
    "kind": "dev",
    "methods": {},
    "version": 1
  },
  "userdoc": {
    "kind": "user",
    "methods": {},
    "version": 1
  }
}